:1000000000400020A9430000E5430000E543000054
:10001000E5430000E5430000E54300000000000068
:10002000000000000000000000000000E5430000A8
:10003000E543000000000000E54300005199000086
:10004000E5270000CD420000DB420000E94200004D
:10005000F9420000E543000041190000F5180000D6
:100060007D240000410E0000510E0000E543000019
:10007000E5430000E5070000C53B000045390000EE
:1000800075390000E5430000C5110000FD060000C1
:100090003D3B0000553B0000E5430000E543000008
:1000A000DD3A0000F53A00000D3B0000253B000062
:1000B000113F0000393F0000E5430000E543000028
:1000C000E5430000E5430000E5430000510900005E
:1000D000E5430000E5430000E5430000E543000080
:1000E000E5430000BD1700005D390000591700000E
:1000F000E5430000750400007502000000000000E8
:1001000000000000000000000000000000000000EF
:1001100000000000000000000000000000000000DF
:10012000E5430000E5430000E5430000E54300002F
:10013000E5430000E5430000E5430000E54300001F
:100140000000000000000000E53B0000613F0000EF
:10015000893F0000E543000000000000E543000087
:10018000FFFFFFFFFFFFFFFFFFFFFFFFFFFFFFFF7F
:1001900003329CA7FD000000FFFFFFFFFFFFFFFFF2
:1001C00010B5054C237833B9044B13B10448AFF391
:1001D00000800123237010BD0010042000000000E7
:1001E000D088020008B5034B1BB103490348AFF3A5
:1001F000008008BD0000000004100420D088020028
:10020000154B002B08BF134B9D46A3F5803A0021E8
:100210008B460F461348144A121A1BF005F90F4B70
:10022000002B00D098470E4B002B00D098470020A1
:10023000002104000D000D48002802D00C481FF0DA
:10024000EFFC1AF0A3FF2000290015F05BFE1AF066
:100250008DFF00BF000008000040002000000000EB
:100260000000000000100420EC36042021FC0100F6
:100270001D0E020080B584B000AF7D4B1B68BB60D3
:10028000BB685B689B8C9BB2DBB2002B14D0BB6855
:100290001B6803F02003002B05D1BB685B690221BA
:1002A000B868984708E0BB685B689B8C9AB2BB68EB
:1002B0005B68D2B292B29A84BB685B689B8C9BB23B
:1002C00003F47F43002B73D0BB685B689B8C9BB2AD
:1002D0001BB2002B15DABB681B6843F00402BB6835
:1002E0001A60BB685B684FF400429A84BB68DB68A5
:1002F000002B06D0BB68DB68BA6890680022012139
:100300009847BB685B689B8C9BB203F48043002BCF
:1003100015D0BB681B6843F48072BB681A60BB6869
:100320005B684FF480429A84BB68DB68002B06D080
:10033000BB68DB68BA689068002200219847BB68F8
:100340005B689B8C9BB203F48073002B0AD0BB6864
:100350001B6843F40072BB681A60BB685B684FF4AB
:1003600080729A84BB685B689B8C9BB203F40073B9
:10037000002B0AD0BB681B6843F40052BB681A60AC
:10038000BB685B684FF400729A84BB685B689B8CA7
:100390009BB203F48063002B0AD0BB681B6843F454
:1003A0008042BB681A60BB685B684FF480629A84C5
:1003B000BB685B681B8D9BB2002B12D0BB685B686F
:1003C0001B8DFB80BB681B6803F02003002B04D14E
:1003D000BB685B690321B8689847BB685B68FA88AB
:1003E0001A85BB685B689B8D9BB2002B3BD0BB68BA
:1003F0005B689B8D9BB23B60BB681B6803F020036E
:10040000202B2BD1BB68DB68002B27D00023FB609F
:1004100021E0FB685B0001229A403B681340002BFF
:1004200006D0BB68DB68BA689068FA680321984711
:10043000FB685B00013301229A403B681340002BAC
:1004400006D0BB68DB68BA689068FA6804219847F0
:10045000FB680133FB60FB68032BDAD9BB685B6880
:100460003A6892B29A8500BF1037BD4680BD00BF82
:100470000000042090B587B000AF524B3B613B6950
:100480001B68FB604FF47C43FB823B695B681B7815
:10049000DBB2002B00F08280FB681B889BB223F448
:1004A0007F7323F003039CB22346FB82FB689B8887
:1004B0009BB223409CB2234603F40843002B28D070
:1004C0003B695B681B783B695B681433184601F035
:1004D00017FB3B695B681B78DAB23B695B6822F00B
:1004E0000C02D2B21A70FB681B889BB223F4807393
:1004F0009AB2FB681A803B695B685B68002B08D086
:100500003B695B685B683A695268906821460022E3
:10051000984704F480539BB2002B3FD03B695B6843
:10052000BB60BB681B7CDAB2BB685B7C9A4235D28D
:10053000BB68D968BB681B7CDBB23A1D5B000B440F
:100540001B881380BB681B7CDBB20133DAB2BB684B
:100550001A74BB68D968BB681B7CDBB23A465B0087
:100560000B441B881380BB681B7CDBB20133DAB2FF
:10057000BB681A743B799BB21B029AB27B799BB21F
:1005800013439AB2FB681A813B789BB21B029AB262
:100590007B789BB213439AB2FB689A81FB689B8875
:1005A0009BB21AB2B7F9163023F47F7323F003031A
:1005B0001BB213431BB29AB2FB689A8000BF1C3770
:1005C000BD4690BD1C10042080B483B000AF03462C
:1005D000FB71FB7903F01F02074997F907305B09AC
:1005E000012000FA02F241F8232000BF0C37BD467B
:1005F0005DF8047B704700BF00E100E080B584B087
:1006000000AF0023FB60EFF310837B607B68FB602F
:1006100072B61B4B1B7883F00103DBB2002B26D094
:10062000174B01221A70174B5B68164A43F00103FF
:100630005360154A134B9A601320FFF7C5FF6FF004
:100640007843BB600F4ABB6813620E4ABB68D36233
:100650000C4ABB6853630B4ABB68D363094ABB6847
:100660009364084ABB68D364064ABB681365FB6899
:100670003B603B6883F3108800BF1037BD4680BDE8
:1006800000180420000001400014042080B489B048
:1006900000AF0346B9607A60FB730023FB77164A0C
:1006A000FB7BDB0013440433BB61BB69BA681A608F
:1006B000BB697A685A60FB7B012202FA03F37B6113
:1006C000BB68002B08D00C4BD3F8DC200A497B69AF
:1006D0001343C1F8DC3008E0074BD3F8DC207B691A
:1006E000DB4305491340C1F8DC30FB7F1846243753
:1006F000BD465DF8047B70470018042080B58AB0C1
:1007000000AF2C4BDB6CFB612A4B9B6CBB61294B14
:100710001B6D7B61284BD3F8DC20B9697B690B43E7
:1007200013407B627B6A002B37D020233B617B6ABE
:10073000B3FA83F33B622CE03A693B6AD31A013B7C
:10074000FB600122FB6802FA03F3BB601A4AFB68F4
:10075000DB00134404337B607B681B68002B0FD0E5
:10076000BA69BB681340002B01D0012300E00223CB
:100770003B607B681B687A6850680022396898473C
:10078000BB68DB437A6A13407B627B6AB3FA83F30C
:100790003B623A6A3B699A42CED3064ABB6993648C
:1007A000044A7B691365034AFB69D36400BF283799
:1007B000BD4680BD000001400018042080B483B015
:1007C00000AF7860396000BF7B681B681A683B68BF
:1007D0001340002BF8D100BF0C37BD465DF8047BF9
:1007E0007047000080B582B000AF0023FB7100238A
:1007F000BB71544BDB683B603B681B681A683B6805
:100800005A613B681B683A6852691A603B685A69CA
:100810004D4B13403A6893613B689B69002B01D0B4
:100820000123BB71BB7983F00103DBB2002B45D000
:100830003B685B6903F00803002B36D03B689B6A7A
:10084000002B2BD03B681A6A3B681B68DA603B6858
:100850001B6A03F108023B681A623B685A6A3B68EC
:100860001B6812681A613B685B6A1A1D3B685A6212
:100870003B685A6A3B681B6812685A613B685B6A4E
:100880001A1D3B685A623B689B6AA3F108023B68E9
:100890009A623B681B6804229A6011E00121386863
:1008A000FFF78CFF0123FB710AE03B685B6903F0F3
:1008B0000403002B04D00123FB7101E00123FB7131
:1008C000FB79002B39D03B681B685A683B681B6872
:1008D00022F007025A603B681B681C4A1A623B6898
:1008E0001B681A6B3B681B6822F003021A633B68A3
:1008F0001B6800221A623B6800225A773B689B689B
:10090000002B15D0BB7983F00103DBB2002B07D09D
:100910003B689B683A68D06800220021984707E04E
:100920003B689B683A68D0683A68926901219847A9
:100930003B682C33184601F0E3F800BF0837BD468A
:1009400080BD00BF08000420F0AF01B865756C677A
:1009500080B582B000AF314BDB687B607B681B6881
:100960001A687B685A617B681B687A6852691A60EA
:100970007B685A692A4B13407A6893617B681B68CD
:10098000284A1A627B681B681A6B7B681B6822F016
:1009900003021A637B681B6800221A627B680022CC
:1009A0009A627B6800225A777B689B68002B2CD068
:1009B0007B689B69002B0CD17B681B7FDBB2002B13
:1009C00007D17B689B687A68D0680022002198472D
:1009D0001BE07B689B69002B08D17B689B687A6869
:1009E000D0687A689269012198470EE07B681B7F86
:1009F000DBB2002B09D17B689B687A68D0687A6883
:100A0000127FD2B21146002298477B682C331846D9
:100A100001F076F800BF0837BD4680BD080004200D
:100A2000F0AF01B865756C6780B483B000AF034662
:100A3000FB71FB7903F01F02074997F907305B0947
:100A4000012000FA02F241F8232000BF0C37BD4616
:100A50005DF8047B704700BF00E100E080B584B022
:100A600000AF78603960144B1B69002B1ED1124A0D
:100A70007B6813610023FB600FE00F4B1B69FA6872
:100A8000002143F832100C4B1A69FB68DB00134459
:100A900000225A60FB680133FB60FB68012BECD934
:100AA0000920FFF7C1FF0A20FFF7BEFF0023184609
:100AB0001037BD4680BD00BF1800042080B487B049
:100AC00000AF0346FB710B46BB711346BB8000238E
:100AD0007B61FB79114A52F823303B61EFF31083BD
:100AE000FB60FB687B6172B6BB79092B02D00A2BD5
:100AF00004D007E03B69BA881A8503E03B69BA88ED
:100B00009A8500BF7B69BB60BB6883F310880023B4
:100B100018461C37BD465DF8047B7047180004205A
:100B200080B485B000AF03460A46FB711346BB8014
:100B3000FB79074A52F82330FB60FB68BA889A8435
:100B4000002318461437BD465DF8047B704700BF8C
:100B50001800042080B487B000AF0346FB710B4639
:100B6000BB801346BB7100237B61FB79154A52F8A9
:100B700023303B61EFF31083FB60FB687B6172B64F
:100B8000BB79002B08D03B699B889AB2BB88134382
:100B90009AB23B699A8009E03B699B889AB2BB880C
:100BA000DB439BB213409AB23B699A807B69BB607E
:100BB000BB6883F31088002318461C37BD465DF8D8
:100BC000047B70471800042080B487B000AF034650
:100BD000FB710B46BB801346BB7100237B61FB7925
:100BE000154A52F823303B61EFF31083FB60FB683A
:100BF0007B6172B6BB79002B08D03B699B899AB2A6
:100C0000BB8813439AB23B699A8109E03B699B898F
:100C10009AB2BB88DB439BB213409AB23B699A817C
:100C20007B69BB60BB6883F31088002318461C37C0
:100C3000BD465DF8047B70471800042080B487B07F
:100C400000AF0346FB710B46BB801346BB7100230C
:100C50007B61FB79154A52F823303B61EFF3108337
:100C6000FB60FB687B6172B6BB79002B08D03B69E7
:100C70001B899AB2BB8813439AB23B691A8109E077
:100C80003B691B899AB2BB88DB439BB213409AB283
:100C90003B691A817B69BB60BB6883F310880023C2
:100CA00018461C37BD465DF8047B704718000420C9
:100CB00080B485B000AF03460A46FB711346BB8083
:100CC000FB79074A52F82330FB60FB68BA881A8325
:100CD000002318461437BD465DF8047B704700BFFB
:100CE0001800042080B485B000AF03460A46FB71AB
:100CF0001346BB80FB79074A52F82330FB60FB6840
:100D0000BA889A83002318461437BD465DF8047BE1
:100D1000704700BF1800042080B485B000AF0346C0
:100D20003A60FB710B46BB80FB79094A52F82330CD
:100D3000FB60FB681B8A9AB2BB8813409AB23B687F
:100D40001A80002318461437BD465DF8047B7047AF
:100D50001800042080B489B000AF0346B9607A60FF
:100D6000FB730023FB830023BB61FB7B9BB2093B2E
:100D7000FB83EFF310833B613B69BB6172B60C4BA5
:100D80001B69FA8BB96843F83210094B1A69FB8B5F
:100D9000DB0013447A685A60BB697B617B6983F32B
:100DA0001088002318462437BD465DF8047B704741
:100DB0001800042080B586B000AF03460A46FB71D8
:100DC0001346BB711D4B1A69FB79DB0013443B6171
:100DD0000023FB752BE0FB7D184A52F82330FB60A3
:100DE00097F90630092B03D1FB681B8DBB8202E00B
:100DF000FB689B8DBB82FB681B8E9AB2BB8A13403B
:100E00009BB27B817A89FB681A863B691B68002B41
:100E10000AD07B89002B07D03B691B683A69506870
:100E2000F97D07F10A029847FB7D0133FB75FB7DD5
:100E3000032BD0D900BF1837BD4680BD1800042051
:100E400080B500AF09210020FFF7B4FF00BF80BDCF
:100E500080B500AF0A210120FFF7ACFF00BF80BDC5
:100E600080B483B000AF0346FB71FB7903F01F022F
:100E7000074997F907305B09012000FA02F2203395
:100E800041F8232000BF0C37BD465DF8047B704756
:100E900000E100E080B485B000AF78607B681B683B
:100EA000B3F84C309BB21B119BB203F003039BB20F
:100EB000C3F10203FB8116E07B685B691B78DAB241
:100EC0007B681B6892B29A817B685B695A1C7B685D
:100ED0005A617B681B8B9BB2013B9AB27B681A8379
:100EE000FB89013BFB817B681B8B9BB2002B02D0F3
:100EF000FB89002BE0D17B681B8B9BB2002B30D190
:100F00007B681B8D9BB2002B23D07B681B687A68A3
:100F1000D2891A8325E07B68DB691B78DAB27B68AB
:100F20001B6892B29A817B68DB695A1C7B68DA6124
:100F30007B681B8C9BB2013B9AB27B681A847B68EE
:100F40005B8D9BB201339AB27B685A85FB89013B6A
:100F5000FB817B681B8C9BB2002B02D0FB89002B92
:100F6000D9D17B681B8B9BB2002B16D17B681B8C65
:100F70009BB2002B11D12023BB817B681B681B888F
:100F80009BB21AB2B7F90C30DB431BB213401BB251
:100F90007B817B681B687A891A807B681B8C9BB27B
:100FA000002B03D17B681B6804229A8000BF143792
:100FB000BD465DF8047B704780B485B000AF7860B3
:100FC0007B681B68B3F84C309BB29B119BB203F05B
:100FD0000303FB8140E0FB89013BFB817B685B8D68
:100FE0009BB201339AB27B685A857B681B681B8968
:100FF0009AB27B685B6AD2B21A707B685B6A5A1CD1
:101000007B685A627B681B689B8A9BB2002B23D14A
:101010007B681B8D9BB2B3F5807F0DD97B681B6805
:101020004FF480721A827B681B8D9BB2A3F580738C
:101030009AB27B681A850FE07B681B8D9BB2002BF0
:101040000AD07B681B8D9AB27B681B68013A92B20A
:101050001A827B6800221A85FB89002BBBD100BF56
:101060001437BD465DF8047B7047000080B582B040
:1010700000AF786000BF0D4B1B881A467B681B6869
:101080009B889BB203F488639A42F4D17B685B68C7
:1010900093F900301846FFF7E3FE7B681B68044AAB
:1010A00012881A8000BF0837BD4680BDE0180420B2
:1010B0003C00042080B483B000AF7860404B1B88B4
:1010C0001A467B681B8903F010039A4208D07B689C
:1010D00093F82D3043F00103DAB27B6883F82D20BA
:1010E000374B1B881A467B681B8903F080039A42A2
:1010F00008D07B6893F82D3043F00203DAB27B68A6
:1011000083F82D202E4B1B881A467B681B8903F021
:1011100020039A4208D07B6893F82D3043F00403F3
:10112000DAB27B6883F82D20254B1B881A467B6832
:101130001B8903F400739A4208D07B6893F82D3022
:1011400043F01003DAB27B6883F82D201C4B1B8818
:101150001A467B681B8903F480539A4208D07B6847
:1011600093F82D3043F02003DAB27B6883F82D200A
:101170007B6893F82D305AB27B6893F82E305BB2BF
:10118000DB435BB213405BB2DAB27B6883F82D209D
:101190007B6893F82D30002B0BD17B6893F82E30B1
:1011A0009AB2074B1B889A4203D17B68082283F8C6
:1011B0002D2000BF0C37BD465DF8047B704700BF93
:1011C000E018042080B582B000AF284BDB687B605C
:1011D0007B681B689B889AB27B681A817B689B7AC4
:1011E000002B07D07B681B687A68D2891A837B68DA
:1011F00000229A721E4B1B881A467B681B8903F0DB
:1012000004039A4202D07868FFF744FE184B1B880B
:101210001A467B681B8903F008039A4202D078685B
:10122000FFF7CAFE124B1B881A467B681B891946BA
:1012300041F2B0230B409A4202D07868FFF73AFFA0
:101240000B4B1B881A467B681B8903F480739A42F8
:1012500007D07868FFF70AFF7B683033184600F044
:101260004FFC00BF0837BD4680BD00BF2C000420E6
:10127000E018042080B483B000AF0346FB71FB7913
:1012800003F01F02074997F907305B09012000FAB4
:1012900002F241F8232000BF0C37BD465DF8047B05
:1012A000704700BF00E100E080B500AF2A4B4CF66C
:1012B0001432DA60284B294A1A61294B00221A603D
:1012C000254B4CF61432DA60234B1B69224A43F05B
:1012D0000203136100BF204B1B6903F40073002B52
:1012E000F9D0204B1B681F4A23F0030313601D4BEA
:1012F00000221A601B4B1C4A5A601A4B00229A604B
:10130000184B46F61A02DA60164B5F225A61174BE9
:1013100000221A60154B00229A60144B00225A6476
:101320000D4B4CF61432DA600B4B1B690A4A23F062
:10133000080313610620FFF79DFF0720FFF79AFFC0
:101340002920FFF797FF2B20FFF794FF03F04EF8BB
:101350000023184680BD00BF00C1044002C0010048
:10136000E418042000C304400404100000C004403A
:1013700080B500AF03F03AF80023184680BD0000A6
:1013800080B487B000AF0346FB7100237B61EFF3AD
:101390001083BB60BB687B6172B60E4B4CF6143297
:1013A000DA600C4B1B6923F001033B61FB79033BC3
:1013B0003A6913433B61074A3B6913617B69FB60F0
:1013C000FB6883F31088002318461C37BD465DF880
:1013D000047B704700C1044080B487B000AF03466F
:1013E000FB7100237B61EFF31083BB60BB687B6103
:1013F00072B60C4B1B6823F003033B61FB79093B7E
:101400003A6913433B61074A3B6913607B69FB60A0
:10141000FB6883F31088002318461C37BD465DF82F
:10142000047B704700C3044080B584B000AF03461E
:101430003960FB7102F0DAFF134B1B68BB60FB796C
:10144000002B07D0012B0CD1104B5B6803F03F033E
:10145000FB6008E00D4B5B681B0A03F03F03FB6079
:1014600001E004230BE0FB68002B01D10123FB60AA
:10147000BA68FB68B2FBF3F23B681A6000231846B7
:101480001037BD4680BD00BF0019042000C30440D2
:1014900080B588B000AF03460A46FB711346BB8097
:1014A00000237B61FB79012B04D0022B0ED0002B93
:1014B00005D011E03F23FB61BB88BB610EE04FF418
:1014C0007C53FB61BB881B02BB6107E0144BFB61D3
:1014D000BB881B04BB6101E004231CE0EFF3108315
:1014E000BB60BB687B6172B60E4B5B683B61FB699E
:1014F000DB433A6913403B613A69BB6913433B6183
:10150000084A3B6953607B69FB60FB6883F3108882
:1015100002F06CFF002318462037BD4680BD00BF97
:101520000000FF0100C3044080B48BB000AF03464D
:101530000A46FB711346BB7100237B6200233B62AA
:101540000023FB610023BB61FB79042B2DD801A292
:1015500052F823F069150000791500008915000084
:10156000AB1500009915000008237B622F4B3B62EE
:101570004FF40063FB611AE004237B622B4B3B6258
:101580004FF48063FB6112E002237B62274B3B62D6
:101590004FF40073FB610AE04FF400737B62244B4D
:1015A0003B624FF40073FB6101E0092338E0EFF385
:1015B00010833B613B69BB6172B61E4B4CF6143223
:1015C000DA60BB79002B11D03B6A1A687B6A1A4338
:1015D0003B6A1A60FB79042B0FD1174B1B6803F091
:1015E00001037B617B69012BF7D106E03B6A1A6836
:1015F0007B6ADB431A403B6A1A60BB69FB60FB688D
:1016000083F31088FB69002B09D0BB79002B06D02F
:1016100000BF084B1A69FB691340002BF9D0002367
:1016200018462C37BD465DF8047B704710C1044056
:101630000CC3044000C1044018C3044080B485B00A
:1016400000AF03463960FB71334B1B69FB603B689D
:1016500000221A70FB79032B4DD801A252F823F017
:1016600095160000B916000071160000DD16000086
:10167000FB6803F00203002B41D0FB6803F4007306
:10168000002B03D03B6802221A7038E03B6801222D
:101690001A7034E0FB6803F00803002B31D0FB68BC
:1016A00003F40063002B03D03B6802221A7028E089
:1016B0003B6801221A7024E0FB6803F00403002B4E
:1016C00021D0FB6803F48063002B03D03B68022227
:1016D0001A7018E03B6801221A7014E0FB6803F4EA
:1016E0008073002B03D03B6802221A700CE03B6829
:1016F00001221A7008E03B6803221A7004E000BF60
:1017000002E000BF00E000BF002318461437BD46CA
:101710005DF8047B704700BF00C1044080B483B013
:1017200000AF0346FB71FB79012B06D1094B5B6CC3
:10173000084A43F00203536405E0064B5B6C054A1C
:1017400023F002035364002318460C37BD465DF8AE
:10175000047B704700C0044080B582B000AF144BDA
:101760009B6903F006037B60124B1B68002B18D0AB
:101770007B6803F00403002B07D00E4B1B680E4A56
:10178000106800220F2198470BE07B6803F00203EA
:10179000002B06D0074B1B68074A106800220E2159
:1017A0009847034A7B68936100BF0837BD4680BDF8
:1017B00000C30440E4180420E818042080B584B075
:1017C00000AF474B9B6903F4CC43BB60454B1A69A0
:1017D000454B13407B600023FB60444B1B68002B90
:1017E00066D0BB68002B31D0BB6803F48043002B6C
:1017F00004D0FB6843F00B03FB601CE0BB6803F400
:101800000053002B04D0FB6843F00A03FB6012E096
:10181000BB6803F40073002B04D0FB6843F00C0397
:10182000FB6008E0BB6803F48063002B03D0FB6817
:1018300043F00D03FB60FB68002B39D02B4B1B687A
:101840002B4A10680022F968984731E07B68002B2A
:101850002ED07B68002B13DA244B1B68244A1068B7
:101860000022072198477B6803F40053002B1FD008
:101870001E4B1B681E4A106800220621984717E07D
:101880007B6803F08043002B12D0184B1B68184A6A
:1018900010680022082198477B6803F48003002B1E
:1018A00006D0124B1B68124A106800220921984783
:1018B000BB68002B03D00A4ABB6893610CE07B68CD
:1018C000002B09D0074B4CF61432DA60054B1A692D
:1018D00004497B6813430B6100BF1037BD4680BDD0
:1018E00000C3044000C10440002040C0E4180420AC
:1018F000E818042080B582B000AF0E4B5B687B60B7
:101900007B6803F00103002B10D00B4B1B68002BEE
:1019100006D0094B1B68094A10680022796898476D
:10192000044B5B68034A43F00103536000BF083770
:10193000BD4680BD00C00440E4180420E81804201F
:1019400080B582B000AF154B5B687B60144B1B68A1
:10195000002B17D07B6803F00403002B06D0104B3C
:101960001B68104A10680022002198477B6803F02A
:101970000203002B06D00A4B1B680A4A106800229B
:1019800001219847054B5A687B6803F00603034919
:1019900013434B6000BF0837BD4680BD00C0044004
:1019A000E4180420E818042080B491B000AF034686
:1019B0003960FB711346BB710023FB630023BB63DB
:1019C00000237B633B68002B05D1FB6B43F00203D4
:1019D000FB63464B3B60FB79032B1CD801A252F8FA
:1019E00023F000BFF9190000F5190000031A0000E8
:1019F0000D1A0000002372E0BB6B43F00603BB63CB
:101A00000BE0FB6B43F00403FB6306E0FB6B43F06E
:101A10000603FB6301E0062361E0EFF31083FB6143
:101A2000FB697B6372B6324B44F65902DA60304B85
:101A30009B6823F00302FB792D4913438B602D4BE8
:101A40001A69FB6B1A43BB6BDB432A4913400B61DA
:101A5000EFF311833B623B6A3B63274B1B89FB859A
:101A6000264B1B68BB62BB795B017B627B6A83F39D
:101A700011880DE0BFF34F8F30BF7B6B7B617B69BB
:101A800083F31088EFF31083BB61BB697B6372B68D
:101A90003B681B68002BEDD03B681B685A1E3B68F7
:101AA0001A603B6B3B613B6983F31188124AFB8DE3
:101AB0001381BB6A03F00103002B02D00F4B0122FC
:101AC0005A600C4B1B690B4A23F002031361BFF3EE
:101AD0004F8F7B6BFB60FB6883F3108800231846F5
:101AE0004437BD465DF8047B704700BFEC18042006
:101AF00000C0044000ED00E0002C00400000014068
:101B000080B487B000AF786000237B617B68002BD6
:101B10001AD1134B7B60EFF31083FB60FB687B6192
:101B200072B6104B9B680F4A23F0030393600E4B71
:101B30001B690D4A23F006031361BFF34F8F7B69C6
:101B40003B613B6983F310887B681B685A1C7B6888
:101B50001A60002318461C37BD465DF8047B7047A9
:101B6000EC18042000C0044000ED00E080B483B015
:101B700000AF0346FB71FB7903F01F02074997F999
:101B800007305B09012000FA02F241F8232000BF70
:101B90000C37BD465DF8047B704700BF00E100E0F4
:101BA00080B586B000AFF860B9607A603B60BB6812
:101BB0007B613B6800221A607A680021B86819F0DE
:101BC00033FC6449FA6813465B0013449B000B44E2
:101BD0001A687B691A6000BF7B691B681B899BB20E
:101BE00003F08003002BF7D17B691B6800221A8069
:101BF00000BF7B691B689B8D9BB203F48053002B55
:101C0000F7D17B691B6800221A8500BF7B691B68BE
:101C10009B889BB203F08003802BF7D100BF7B69C8
:101C20001B689B8D9BB203F48043B3F5804FF6D1C4
:101C300000BF7B691B681B899BB203F48073002B78
:101C4000F7D17B691B687E229A8000BF7B691B6885
:101C50009B889BB203F48073B3F5807FF6D17B69D8
:101C60001B683D4A934204D17B691B681F229A85F9
:101C700003E07B691B680F229A8500BF7B691B68A4
:101C8000B3F884309BB203F00103002BF6D17B69DB
:101C90001B6841F6FD72A3F8482000BF7B691B68F2
:101CA000B3F880309BB203F00103012BF6D100BFE3
:101CB0007B691B681B899BB203F4C063002BF7D1BF
:101CC0007B691B6800229A817B691B6800221A824B
:101CD00000BF7B691B689B889BB203F4C063B3F5AC
:101CE000C06FF6D11B49FA6813465B0013449B0092
:101CF0000B4408337A691A60FA6813465B00134490
:101D00009B00144A1A447B695A61FA6813465B00C7
:101D100013441B01114A13441946786900F0D2FAA2
:101D20003B687A691A600B49FA6813465B001344F2
:101D30009B000B44043393F900207B691A737B6981
:101D400093F90C301846FFF711FF00231846183797
:101D5000BD4680BD480004200014004060000420FF
:101D600080B487B000AF78600B46FB707B687B6106
:101D700000BF7B691B681B899BB203F08003002BAB
:101D8000F7D100233B61EFF31083FB60FB683B61FD
:101D900072B6FB78002B0AD07B691B681B889AB24D
:101DA0007B691B6842F0020292B21A8009E07B69EB
:101DB0001B681B889AB27B691B6822F0020292B2F0
:101DC0001A803B69BB60BB6883F3108800BF7B69E6
:101DD0001B689B889BB203F08003802BF7D1002304
:101DE00018461C37BD465DF8047B704780B487B049
:101DF00000AF78600B46FB707B687B6100BF7B693E
:101E00001B681B899BB203F08003002BF7D10023D2
:101E10003B61EFF31083FB60FB683B6172B6FB78BC
:101E2000002B0AD07B691B681B889AB27B691B68F0
:101E300042F0010292B21A8009E07B691B681B889C
:101E40009AB27B691B6822F0010292B21A803B6948
:101E5000BB60BB6883F3108800BF7B691B689B88ED
:101E60009BB203F08003802BF7D1002318461C3768
:101E7000BD465DF8047B704780B489B000AFF86060
:101E8000B9601346FB71FB68BB6100BFBB691B688F
:101E90001B899BB203F08003002BF7D100BFBB6905
:101EA0001B689B8D9BB203F48053002BF7D100235A
:101EB000FB77834B00221A80824B00221A80824BD0
:101EC00000221A80814B00221A80814B00221A8046
:101ED000804B00221A8020E0BB6803F00103002B36
:101EE00015D0FB7F7C4A52F833307B61FB7F7A4A06
:101EF000DB0013449B887B827B691A887B8A0121E3
:101F000001FA03F39BB213439AB27B691A80BB6850
:101F10005B08BB60FB7F0133FB77BB68002BDBD129
:101F2000FB79002B4AD0BB691B681B8899B2644BB4
:101F30001A88BB691B680A4392B21A80BB691B6886
:101F40001B8D99B25F4B1A88BB691B680A4392B21A
:101F50001A85BB691B68B3F8503099B25A4B1A887E
:101F6000BB691B680A4392B2A3F85020BB691B6887
:101F7000B3F8543099B2554B1A88BB691B680A43B1
:101F800092B2A3F85420BB691B68B3F84C3099B2E5
:101F90004F4B1A88BB691B680A4392B2A3F84C20C6
:101FA000BB691B68B3F8C43099B24A4B1A88BB6945
:101FB0001B680A4392B2A3F8C42067E0BB691B68A0
:101FC0001B889BB21AB23E4B1B881BB2DB431BB271
:101FD00013401AB2BB691B6892B21A80BB691B68B6
:101FE0001B8D9BB21AB2374B1B881BB2DB431BB253
:101FF00013401AB2BB691B6892B21A85BB691B6891
:10200000B3F850309BB21AB22F4B1B881BB2DB4384
:102010001BB213401AB2BB691B6892B2A3F85020DE
:10202000BB691B68B3F854309BB21AB2274B1B88AC
:102030001BB2DB431BB213401AB2BB691B6892B2DE
:10204000A3F85420BB691B68B3F84C309BB21AB29A
:102050001F4B1B881BB2DB431BB213401AB2BB6978
:102060001B6892B2A3F84C20BB691B68B3F8C4305C
:102070009BB21AB2174B1B881BB2DB431BB2134037
:102080001AB2BB691B6892B2A3F8C42000BFBB6937
:102090001B689B889BB203F08003802BF7D100BFA5
:1020A000BB691B689B8D9BB203F48043B3F5804FE3
:1020B000F6D1002318462437BD465DF8047B7047EF
:1020C000F0180420F2180420F4180420F618042054
:1020D000F8180420FA180420C000042080B584B049
:1020E00000AF7860396007F108031946786800F09E
:1020F0004DFD0346FB737B891B043A891A433B68F9
:102100001A60FB7B18461037BD4680BD80B487B08F
:1021100000AF786039607B687B6100BF7B691B68BA
:102120001B899BB203F4C053002BF7D100233B6102
:10213000EFF31083BB60BB683B6172B67B691B68C1
:102140003A6892B29A823B681A0C7B691B6892B219
:102150001A837B691B680022A3F844203B69FB605B
:10216000FB6883F3108800BF7B691B689B889BB268
:1021700003F4C053B3F5C05FF6D100BF7B691B68A1
:102180009B8D9BB203F40043B3F5004FF6D10023BF
:1021900018461C37BD465DF8047B704780B489B093
:1021A00000AF78600B46FB707B68FB6100BFFB698A
:1021B0001B689B8D9BB203F48053002BF7D1002347
:1021C000BB61EFF31083FB60FB68BB6172B6FB6918
:1021D0001B681B8D9BB223F4F073FB82FB789BB2D0
:1021E0005B019AB2FB8A1343FB82FB691B68FA8A84
:1021F0001A85BB693B613B6983F3108800BFFB69AB
:102200001B689B8D9BB203F48043B3F5804FF6D1DE
:10221000002318462437BD465DF8047B704780B420
:1022200087B000AFF860B9607A60FB687B6100BF7F
:102230007B691B681B899BB203F08003002BF7D1DD
:102240007B69BA685A607B697A689A60002318468D
:102250001C37BD465DF8047B704780B485B000AF85
:102260007860084611461A4603467B800B467B7011
:1022700013463B707B68FB607A887B781A433B7817
:102280001343BB6000BFFB681B681B899BB203F450
:102290000053002BF7D1FB681B68BA6892B29A838F
:1022A00000BFFB681B689B889BB203F40053B3F527
:1022B000005FF6D1002318461437BD465DF8047B55
:1022C0007047000080B483B000AF7860396000BF11
:1022D0007B681B681B899BB203F08003002BF7D13E
:1022E0007B681B683A6812881A8000BF7B681B688D
:1022F0009B8D9BB203F48053002BF7D17B681B6846
:102300003A6852881A8500BF7B681B681B899BB29C
:1023100003F4C063002BF7D17B681B683A6892888E
:102320009A817B681B683A68D2881A8200BF7B68F2
:102330001B681B899BB203F4C053002BF7D17B6849
:102340001B683A6812899A827B681B683A685289CE
:102350001A8300BF7B681B689B8D9BB203F40053FC
:10236000002BF7D17B681B683A689289A3F8442058
:102370007B681B68404A93424FD100BF7B681B6853
:10238000B3F884309BB203F05E03002BF6D17B6878
:102390001B683A68128AA3F84C207B681B683A686D
:1023A000528AA3F850207B681B683A68928AA3F887
:1023B00054207B681B683A68D28AA3F858207B684F
:1023C0001B683A68128BA3F8702000BF7B681B68FB
:1023D000B3F8D8309BB203F45C53002BF6D17B6882
:1023E0001B683A68D28CA3F8C4207B681B683A68E3
:1023F000128DA3F8C8207B681B683A68528DA3F839
:10240000CC207B681B683A68928DA3F8E0207B683B
:102410001B683A68D28DA3F8E42000BF7B681B6874
:102420009B889BB203F4F453B3F5F45FF6D100BF7D
:102430007B681B689B8D9BB203F44043B3F5404F10
:10244000F6D100BF7B681B68B3F880309BB203F005
:102450005E035E2BF6D100BF7B681B68B3F8D430F7
:102460009BB203F45C53B3F55C5FF5D100BF0C374E
:10247000BD465DF8047B70470014004080B586B00F
:1024800000AF00237B6100233B61A14B9B68FB6095
:10249000FB681B681B889BB21A464FF60403134067
:1024A0003B61FB681B689B889BB203F07E037B81CA
:1024B0007B89002B56D03B69002B53D03B6903F03E
:1024C0001003002B08D07B8903F00403002B03D0FA
:1024D0007B6943F002037B613B6903F00403002B3B
:1024E00008D07B8903F00203002B03D07B6943F003
:1024F00001037B613B6903F48053002B08D07B8987
:1025000003F00803002B03D07B6943F004037B61D5
:102510003B6903F40043002B08D07B8903F04003A0
:10252000002B03D07B6943F020037B613B6903F4FC
:102530008043002B08D07B8903F02003002B03D0BD
:102540007B6943F010037B613B6903F40053002B6C
:1025500008D07B8903F01003002B03D07B6943F084
:1025600008037B61FB681B681B8D9BB203F01F0394
:102570003B61FB681B689B8D9BB203F00F033B81A3
:102580003B89002B3AD03B69002B37D03B6903F0E5
:102590000803002B08D03B8903F00803002B03D06D
:1025A0007B6943F400737B613B6903F00403002BF8
:1025B00008D03B8903F00403002B03D07B6943F46C
:1025C00080737B613B6903F00203002B08D03B89D9
:1025D00003F00203002B03D07B6943F080037B618F
:1025E0003B6903F00103002B08D03B8903F0010392
:1025F000002B03D07B6943F040037B61FB681B68C1
:10260000B3F850309BB21A4641F6FE7313403B615B
:10261000FB681B68B3F848309AB241F6FD7313406B
:10262000FB80FB88002B75D03B69002B72D03B6987
:1026300003F48053002B08D0FB8803F48053002B55
:1026400003D07B6943F480437B613B6903F40063FF
:10265000002B08D0FB8803F40063002B03D07B69B8
:1026600043F400537B613B6903F48063002B08D083
:10267000FB8803F48063002B03D07B6943F4805311
:102680007B613B6903F40073002B08D0FB8803F4E3
:102690000073002B03D07B6943F400637B613B69CB
:1026A00003F48073002B08D0FB8803F48073002BA5
:1026B00003D07B6943F480137B613B6903F08003A3
:1026C000002B08D0FB8803F04003002B03D07B696C
:1026D00043F400137B613B6903F04003002B08D0F7
:1026E000FB8803F08003002B03D07B6943F4800355
:1026F0007B613B6903F02003002B0BD0FB8803F0C8
:102700002003002B06D07B6943F400037B6101E0CA
:1027100048000420FB681B68B3F850309BB21A468F
:102720004FF21C4313403B61FB88002B3AD03B69BE
:10273000002B37D03B6903F48043002B08D0FB8883
:1027400003F01003002B03D07B6943F480237B61EB
:102750003B6903F40053002B08D0FB8803F0080307
:10276000002B03D07B6943F400337B613B6903F4A6
:102770008053002B08D0FB8803F00403002B03D008
:102780007B6943F480337B613B6903F48063002BF6
:1027900008D0FB8803F00103002B03D07B6943F4CE
:1027A00000437B61FB685B68002B09D07B69002BD1
:1027B00006D0FB685B68FA689068002279699847E0
:1027C000FB681B687A899A80FB681B683A899A853E
:1027D000FB681B68FA88A3F8482000BF1837BD467D
:1027E00080BD00BF80B586B000AF00237B610023B1
:1027F0003B61A84B5B69FB60FB681B681B889BB255
:102800001A464FF6040313403B61FB681B689B8824
:102810009BB203F07E037B817B89002B56D03B6902
:10282000002B53D03B6903F01003002B08D07B89A9
:1028300003F00403002B03D07B6943F002037B61A8
:102840003B6903F00403002B08D07B8903F00203EB
:10285000002B03D07B6943F001037B613B6903F4E8
:102860008053002B08D07B8903F00803002B03D092
:102870007B6943F004037B613B6903F40043002B55
:1028800008D07B8903F04003002B03D07B6943F021
:1028900020037B613B6903F48043002B08D07B89D4
:1028A00003F02003002B03D07B6943F010037B610E
:1028B0003B6903F40053002B08D07B8903F010031D
:1028C000002B03D07B6943F008037B61FB681B6826
:1028D0001B8D9BB203F01F033B61FB681B689B8D44
:1028E0009BB203F01F033B813B89002B48D03B691F
:1028F000002B45D03B6903F01003002B08D03B8927
:1029000003F01003002B03D07B6943F480637B61E9
:102910003B6903F00803002B08D03B8903F0080350
:10292000002B03D07B6943F400737B613B6903F0A8
:102930000403002B08D03B8903F00403002B03D0D1
:102940007B6943F480737B613B6903F00203002BD6
:1029500008D03B8903F00203002B03D07B6943F0CE
:1029600080037B613B6903F00103002B08D03B89A6
:1029700003F00103002B03D07B6943F040037B612C
:10298000FB681B68B3F850309BB21A4641F6FE73E1
:1029900013403B61FB681B68B3F848309AB241F6BC
:1029A000FD731340FB80FB88002B75D03B69002B27
:1029B00072D03B6903F48053002B08D0FB8803F4EA
:1029C0008053002B03D07B6943F480437B613B69D8
:1029D00003F40063002B08D0FB8803F40063002B92
:1029E00003D07B6943F400537B613B6903F480634C
:1029F000002B08D0FB8803F48063002B03D07B6995
:102A000043F480537B613B6903F40073002B08D0CF
:102A1000FB8803F40073002B03D07B6943F400634D
:102A20007B613B6903F48073002B08D0FB8803F4BF
:102A30008073002B03D07B6943F480137B613B6977
:102A400003F08003002B08D0FB8803F04003002B29
:102A500003D07B6943F400137B613B6903F04003BF
:102A6000002B08D0FB8803F08003002B03D07B6988
:102A700043F480037B613B6903F02003002B0BD000
:102A8000FB8803F02003002B06D07B6943F400038E
:102A90007B6101E048000420FB681B68B3F84C3000
:102AA0009BB21A464FF21C4313403B61FB88002B3C
:102AB0003AD03B69002B37D03B6903F48043002BAD
:102AC00008D0FB8803F01003002B03D07B6943F48C
:102AD00080237B613B6903F40053002B08D0FB8803
:102AE00003F00803002B03D07B6943F400337B61C0
:102AF0003B6903F48053002B08D0FB8803F00403E8
:102B0000002B03D07B6943F480337B613B6903F482
:102B10008063002B08D0FB8803F00103002B03D057
:102B20007B6943F400437B61FB685B68002B09D041
:102B30007B69002B06D0FB685B68FA68906800220E
:102B400079699847FB681B689B8899B2FB681B688A
:102B50007A890A4392B29A80FB681B689B8D99B26E
:102B6000FB681B683A890A4392B29A85FB681B6826
:102B7000B3F8483099B2FB681B68FA880A4392B2EE
:102B8000A3F8482000BF1837BD4680BD2DE9F04F9F
:102B90009DB000AF78603960002287F86F204FF059
:102BA00000014FF00002C7E918120222BA657A68E4
:102BB0007A6500BF7A6D1268128992B202F4C0621F
:102BC000002AF7D100223A65EFF31082BA63BA6B9C
:102BD0003A6572B67A6D126847F2276111847A6D90
:102BE0001268128E92B2BA847A6D1268928E92B284
:102BF000FA847A6D1268128F92B23A857A6D1268F1
:102C000047F2276111847A6D1268128E92B27A852A
:102C10007A6D1268928E92B2BA857A6D1268128FAE
:102C200092B2FA857A6D126847F2276111847A6D43
:102C30001268128E92B23A867A6D1268928E92B2B1
:102C40007A867A6D1268128F92B2BA867A6D12689D
:102C5000128DA7F84E203A6DFA63FA6B82F3108852
:102C6000704A11687A6D1268914211D0B7F84E20FF
:102C7000520910464FF000010A4601464FF00F0A74
:102C80004FF0000B01EA0A0102EA0B02C7E9181231
:102C9000386E4FF001014FF00002A0F1200EC0F19C
:102CA000200C02FA00F601FA0EFE46EA0E0621FAA0
:102CB0000CFC46EA0C0601FA00F515F1FF3146F16D
:102CC000FF32C7E910120022FA6552E0F96D0A4698
:102CD00052000A44520007F170010A444A3A12882D
:102CE00091B24FF000024FEA11494FEA0148F96DE5
:102CF0000A4652000A44520007F170010A444C3A55
:102D0000128891B24FF0000241EA080A42EA090B28
:102D1000386EA0F12006C0F120050BFA00F40AFA83
:102D200006F634432AFA05F52C430AFA00F3F96D46
:102D30000A4652000A44520007F170010A44483A18
:102D4000128895B24FF00006D7E9101201EA050A81
:102D500002EA060B4AEA03014BEA0402F86DC000DE
:102D600007F1700528446838C0E90012FA6D013295
:102D7000FA65FA6D022AA9D9D7E90612D7E904340F
:102D8000A24208BF994236D0D7E90612D7E90456C5
:102D90006B1C46F10004A24208BF99422BD0D7E930
:102DA0000612D7E90234A24208BF994223D0D7E9DC
:102DB0000612D7E902566B1C46F10004A24208BF76
:102DC000994218D0D7E90412D7E90234A24208BFC9
:102DD00099420AD0D7E90412D7E902566B1C46F192
:102DE0000004A24208BF994202D10123BB6502E060
:102DF000012387F86F303968BA6D13465B001344BE
:102E00005B0007F170021344A3F14C020B461168FA
:102E1000196092889A8097F86F3018467437BD46CB
:102E2000BDE8F08F4800042080B483B000AF0346B3
:102E3000FB71FB7903F01F02074997F907305B0923
:102E4000012000FA02F241F8232000BF0C37BD46F2
:102E50005DF8047B704700BF00E100E080B483B000
:102E600000AF0346FB71FB7903F01F02074997F996
:102E700007305B09012000FA02F2203341F82320D9
:102E800000BF0C37BD465DF8047B704700E100E0F1
:102E900080B586B000AFF860B9607A603B60BB680F
:102EA0007B617A680021B86818F0BEFAFA681346A8
:102EB0009B0013449B002D4A1A447B695A602B499E
:102EC000FA6813469B0013449B000B441033BA6806
:102ED0001A602649FA6813469B0013449B000B4472
:102EE00008331A687B691A607B6900229A62FB6862
:102EF0009B001F4A13443B617B691B683A69128837
:102F00001A827B691B683A6952889A813B687A69A0
:102F10001A607B691B681B8A9AB27B691B6842F046
:102F2000010292B21A82FDF769FB7B695B685B88DC
:102F3000DBB27A690F491846FDF7A8FB0346002B60
:102F400001D00E230EE07B695B68DB88DBB27A6917
:102F500009491846FDF79AFB0346002B01D00E23C2
:102F600000E0002318461837BD4680BDB801042094
:102F7000486B0200D13800005F38000080B485B093
:102F800000AF78600B46FB707B681B689B8AFB81F7
:102F9000FB8923F00703FB81FB781BB203F00703D7
:102FA0001AB2B7F90E3013431BB2FB817B681B6862
:102FB000FA899A82002318461437BD465DF8047BCF
:102FC000704780B483B000AF78600B46FB70FB782D
:102FD000002B0AD07B681B681B8A9AB27B681B682F
:102FE00042F4006292B21A8209E07B681B681B8A75
:102FF0009AB27B681B6822F4006292B21A820023A4
:1030000018460C37BD465DF8047B704780B584B028
:1030100000AF7860396007F1080319460020FEF719
:1030200003FA0346002B01D003231BE03B685A0040
:10303000BB689A4201D90C2314E0BA683B68B2FB22
:10304000F3F35B089BB2013BFB81FA89FB8903F038
:103050003F039A4201D0072304E07B681B68FA898A
:103060009A81002318461037BD4680BD80B483B0D6
:1030700000AF78600B46FB70FB78002B0AD07B68B2
:103080001B681B8A9AB27B681B6842F0080292B2E6
:103090001A8209E07B681B681B8A9AB27B681B68EE
:1030A00022F0080292B21A82002318460C37BD465D
:1030B0005DF8047B704780B483B000AF78600B4646
:1030C000FB707B68FA7883F82620002318460C37BB
:1030D000BD465DF8047B704780B483B000AF786074
:1030E0000B46FB70FB78002B0AD07B681B681B8AA1
:1030F0009AB27B681B6842F0040292B21A8209E01D
:103100007B681B681B8A9AB27B681B6822F00402EA
:1031100092B21A82002318460C37BD465DF8047B34
:10312000704780B584B000AF786039607B68012259
:1031300083F825203968786800F014F80346FB739B
:103140007B68002283F82520FB7B002B05D17B6860
:103150001B69002B01D00F23FB73FB7B1846103734
:10316000BD4680BD80B584B000AF78603960002373
:103170007B733B681A687B685A613B685A687B6856
:103180009A613B681A897B689A833B685A897B6895
:10319000DA833B681A7B7B6883F820203B685A7B84
:1031A0007B6883F821203B689A7B7B6883F8232027
:1031B0003B68DA7B7B6883F824207B68002283F8F5
:1031C00022207B6800221A617B681B681B8A9AB2E6
:1031D0007B681B6822F4415292B21A827B6893F892
:1031E0002330002B0AD07B681B689B8A9AB27B68CD
:1031F0001B6822F4005292B29A822AE04FF40053E4
:10320000FB817B689B8B002B03D0FB8943F400730D
:10321000FB817B68DB8B002B03D0FB8943F480634D
:10322000FB817B681B689B8A99B27B681B68FA8963
:103230000A4392B29A827B68DB8B002B09D17B68B0
:103240001B681B8A9AB27B681B6842F0400292B2EC
:103250001A827B681B681B889BB27B817B681B681A
:103260007A8992B21A807B681B681B8A9AB27B6843
:103270001B6842F0020292B21A827B6893F8262001
:103280007B681B6892B21A863968786800F018F873
:103290007B6893F82530002B0DD07B682833002203
:1032A00019460020FEF780FB03463B733B7B002B57
:1032B00001D00D2300E07B7B18461037BD4680BD52
:1032C00080B588B000AF786039607B6893F82330B0
:1032D000002B0CD07B6893F82430002B07D03B6880
:1032E0005B89012B03D17B68002283F823207B6854
:1032F0001B681B8A9AB27B681B6842F4405292B2E8
:103300001A827B681B681B8A9AB27B681B6822F44E
:10331000405292B21A827B681B689B8B9AB27B6880
:103320001B6822F0070292B29A830023BB837B685A
:1033300093F82330002B00F0B9800123BB833B6856
:103340001B897B837B8B002B55D07B685B685B88FC
:10335000FB827B685B681B885BB21846FFF764FDE5
:10336000FB8A9A4A012101FA03F3C2F81438FB8A56
:10337000964A012101FA03F39362FB8A934A0121E1
:1033800001FA03F35362FB8A904A012101FA03F325
:1033900053637B8B03F00103002B02D07B8B013343
:1033A0007B833B681A687B8B023BD118884B1A6879
:1033B000FB8A1B0113440A461A607B681B6803F1F1
:1033C0000801834B1A68FB8A1B0113440A465A60A2
:1033D0007B8B5B089BB2013B1B017D4A1168FA8A1B
:1033E00012010A4443F0454343F001039360BB8B51
:1033F00043F00203BB833B685B897B837B8B002BA1
:1034000054D07B685B68DB88BB827B685B689B8889
:103410005BB21846FFF708FDBB8A6C4A012101FA2E
:1034200003F3C2F81C38BB8A684A012101FA03F38E
:103430009362BB8A654A012101FA03F35362BB8A96
:10344000624A012101FA03F353637B8B03F001030A
:10345000002B02D07B8B01337B837B681B68191D9B
:103460005B4B1A68BB8A1B0113440A461A603B680F
:103470005A687B8B023BD118554B1A68BB8A1B01DB
:1034800013440A465A607B8B5B089BB2013B1B01CD
:103490004F4A1168BA8A12010A4443F09A4343F032
:1034A00001039360BB8B43F00403BB837B681B6801
:1034B00000229A847B6893F82430002B2DD07B68FF
:1034C0009B8B013B3B617B681B689B8C9AB27B6842
:1034D0001B6822F0F00292B29A847B681B689B8C76
:1034E0009AB23B699BB29B009BB213439AB27B6832
:1034F0001B6842F0010292B29A847B681B681B8AA7
:103500009AB27B681B6842F4006292B21A827B68AE
:103510001B687A68D28B1A8328E07B68DB8B002BD0
:103520000AD17B681B681B8A9AB27B681B6842F4CD
:10353000805292B21A820DE07B689B8B002B09D1DE
:103540007B681B681B8A9AB27B681B6842F4005236
:1035500092B21A827B689A8B7B68DB8B934238BF6E
:103560001346FB837B681B68FA8B1A837B6893F88E
:10357000233083F00103DBB2002B2BD07B685B6927
:10358000002B52D00023FB8317E07B685B691A781D
:103590007B681B6892B21A817B685B697A6892F8D3
:1035A00020201A447B685A617B689B8B013B9AB24E
:1035B0007B689A83FB8B0133FB83FB8B072B34D80F
:1035C0007B689B8B002BE0D12FE000BF0000014007
:1035D000446B02007B681B689B8B99B27B681B68FD
:1035E000BA8B0A4392B29A837B6893F82330002BFC
:1035F0001BD03B681B89002B17D000233B830FE0B7
:103600007B681B681B8C9BB27B817B899BB203F020
:103610000F03FB81FB89002B06D13B8B01333B83DE
:103620003B8B632BECD900E000BF7B681B681B8AD7
:103630009BB203F04003402B03D07B681B689B8840
:10364000BB817B685B6893F90C301846FFF7ECFB95
:1036500000BF2037BD4680BD80B586B000AF786022
:103660000023FB747B681B681B883B820023FB8163
:103670007B681B683A8A1A807B681B681B8CBB813D
:10368000FB8943F08003FB81FB8943F01003FB813E
:10369000FA893B8A13409BB2002B1AD03B8A03F075
:1036A00010039BB2002B05D07B681B6943F001021D
:1036B0007B681A613B8A03F080039BB2002B05D024
:1036C0007B681B6943F002027B681A610123FB746B
:1036D00059E0BB8903F00F039BB2C3F10803FB82DF
:1036E000BB891B0A9BB203F00F03BB8217E07B6808
:1036F0005B691A787B681B6892B21A817B685B6988
:103700007A6892F820201A447B685A617B689B8B08
:10371000013B9AB27B689A83FB8A013BFB82FB8A5E
:10372000002B03D07B689B8B002BE0D17B6893F848
:10373000243083F00103DBB2002B1DD17B689B8B0F
:10374000002B20D118E07B681B689B889AB27B68AD
:103750009B69D2B21A707B689B697A6892F82120C3
:103760001A447B689A617B68DB8B013B9AB27B6869
:10377000DA83BB8A013BBB82BB8A002B03D07B6808
:10378000DB8B002BDFD17B68DB8B002B31D17B689F
:103790009B8B002B2DD17B681B681B8A9BB203F08F
:1037A0000203022B19D13B8A03F00203002B07D13D
:1037B0007B681B681B889BB203F00203022B18D1A5
:1037C0000123FB747B681B689B8B9AB27B681B6828
:1037D00022F0010292B29A830BE00123FB747B6812
:1037E0001B689B8B9AB27B681B6822F0010292B225
:1037F0009A83FB7C002B2ED07B681B689B8A9AB235
:103800007B681B6822F4185292B29A827B6801226C
:1038100083F822207B685B6893F90C301846FFF729
:103820001DFB7B681B681B883B827B681B683A8A90
:103830001A807B689B68002B08D07B689B687A683D
:10384000D0687A6811690022984704E07B682833C1
:103850001846FEF755F900BF1837BD4680BD80B544
:1038600086B000AFF860B9607A60FB687B61BB68C6
:10387000012B02D0022B07D00DE07B691B6943F0BE
:1038800004027B691A610DE07B691B6943F0100239
:103890007B691A6106E07B691B6943F040027B6922
:1038A0001A6100BF7B699B68002B08D07B699B680D
:1038B0007A69D0687A6911690022984704E07B69C7
:1038C00028331846FEF71CF900BF1837BD4680BDE7
:1038D00080B586B000AFF860B9607A607B687B61C4
:1038E000BB68012B02D0022B07D00DE07B691B695E
:1038F00043F008027B691A610DE07B691B6943F0A4
:1039000020027B691A6106E07B691B6943F0800233
:103910007B691A6100BF7B699B68002B08D07B69BB
:103920009B687A69D0687A6911690022984704E037
:103930007B6928331846FEF7E3F800BF1837BD4609
:1039400080BD000080B500AF034B1B691846FFF730
:1039500083FE00BF80BD00BFB801042080B500AF6A
:10396000034B5B6A1846FFF777FE00BF80BD00BFC0
:10397000B801042080B500AF034B9B6B1846FFF7DE
:103980006BFE00BF80BD00BFB801042080B582B0CF
:1039900000AF786039607B6800229A837B681B687F
:1039A0009B8B9AB27B681B6822F0020292B29A83C8
:1039B0007B68DB8B002B29D13B68002B0AD07B680E
:1039C0001B689B8A9AB27B681B6842F4005292B2D1
:1039D0009A821BE07B681B689B8A9AB27B681B6893
:1039E00022F4185292B29A827B689B68002B08D00E
:1039F0007B689B687A68D0687A681169002298476A
:103A000004E07B6828331846FEF77AF800BF0837D1
:103A1000BD4680BD80B582B000AF786039607B68FC
:103A20000022DA837B681B689B8B9AB27B681B68D9
:103A300022F0040292B29A837B681B681B8A9AB2B6
:103A40007B681B6842F4805292B21A827B689B8B1F
:103A5000002B3ED13B68002B0AD07B681B689B8AF9
:103A60009AB27B681B6842F4005292B29A8230E0AC
:103A70007B681B689B8A9AB27B681B6822F4185289
:103A800092B29A827B681B689B8B9AB27B681B6898
:103A900022F0010292B29A837B68012283F82220ED
:103AA0007B685B6893F90C301846FFF7D7F97B68A1
:103AB0009B68002B08D07B689B687A68D0687A681E
:103AC00011690022984704E07B6828331846FEF706
:103AD00017F800BF0837BD4680BD000080B500AFB5
:103AE000034B1B6901211846FFF750FF00BF80BD43
:103AF000B801042080B500AF034B1B6901211846B3
:103B0000FFF788FF00BF80BDB801042080B500AF7B
:103B1000034B5B6A01211846FFF738FF00BF80BDE9
:103B2000B801042080B500AF034B5B6A0121184641
:103B3000FFF770FF00BF80BDB801042080B500AF63
:103B4000034B9B6B01211846FFF720FF00BF80BD90
:103B5000B801042080B500AF034B9B6B01211846D0
:103B6000FFF758FF00BF80BDB801042080B485B0C6
:103B700000AFF860084611461A4603467B810B46A3
:103B80007B721346FB80FB689B687A891A857B7A77
:103B90009BB2DB029AB2FB8813439BB2FA6892682D
:103BA0006FEA43436FEA53439BB29384FB689B687D
:103BB0003A7E92B29A85002318461437BD465DF8C6
:103BC000047B704780B582B000AF054BDB687B603B
:103BD000786800F017F800BF0837BD4680BD00BF09
:103BE000F401042080B582B000AF054BDB697B6037
:103BF000786800F007F800BF0837BD4680BD00BFF9
:103C0000F401042080B58EB002AF78607B689B68B9
:103C10001B899BB203F00E030C2B00F2718101A2F1
:103C200052F823F0233D0000013F0000593C000002
:103C3000013F0000753C0000013F0000853C000092
:103C4000013F0000013F0000013F0000013F000074
:103C5000013F0000613C0000786800F00FFA52E17B
:103C60007B689B689B8E9BB2DBB21946786800F03C
:103C70009FF948E17B6893F82E301946786800F088
:103C800097F940E10023FB627B689B689B8ABB83BA
:103C9000BB8B03F010039BB2002B05D07B689B68A5
:103CA0001B888023FB6209E0BB8B03F008039BB2F7
:103CB000002B03D0FB6A43F01003FB62BB8B03F0C5
:103CC00004039BB2002B03D0FB6A43F02003FB628A
:103CD000BB8B03F002039BB2002B03D0FB6A43F0C3
:103CE0004003FB62FB6A002B00F00C817B681B7DAC
:103CF00083F00103DBB2002B00F004817B689A693A
:103D0000FB6A1A437B689A617B681B78002B00F082
:103D1000F9807B685B6A04221946786800F0EBF949
:103D2000F0E00023BB627B689B68B3F844309BB231
:103D300003F00F037B837B689B68B3F840309BB232
:103D400003F001033B837B8B002B00F0C9803B8B8E
:103D5000002B00F0C58007F10C0319460020FDF789
:103D600063FB0346002B01D00023FB607B689B684C
:103D7000B3F848309BB21B037B617B689B68B3F848
:103D800044309BB21B099BB21A467B6913437B618B
:103D90007B8B03F00103002B6FD07B689B689B8CAF
:103DA0009BB203F40043B3F5004F4DD1002387F8D5
:103DB00027304FF400633B610123FB837B693F2B7A
:103DC00006D87B695B02DA083B69D31A3B6228E0BC
:103DD0007B697F2B09D87B691B02DA083B69D31A00
:103DE0003B62012387F827301BE07B69FF2B09D852
:103DF0007B69DB01DA083B69D31A3B62022387F84F
:103E000027300EE07B691B0AFB837B699A01FB8BE1
:103E1000DB00B2FBF3F23B69D31A3B62032387F862
:103E200027303B6A9AB2F98B97F8273000931346F4
:103E300001227868FFF79AFEFB68DA007B69B2FB23
:103E4000F3F27B689A6206E0FB68DA007B69B2FBFA
:103E5000F3F27B689A627B68DB68002B3DD07B685D
:103E600093F82C30002B38D07B68DB687A681069B7
:103E70007A68926A032198472FE07B8B03F0020354
:103E8000002B03D0BB6A43F40073BB627B8B03F04F
:103E90000403002B03D0BB6A43F48073BB627B8BAB
:103EA00003F00803002B03D0BB6A43F48063BB62BA
:103EB0007B68DB68002B0DD07B685B6A93F83C3035
:103EC000022B07D17B68DB687A681069BA6A052122
:103ED000984702E07B68BA6ADA617B689B681B8856
:103EE0007B689B68B3F840309AB27B689B6822F08D
:103EF000070292B2A3F840207B6800221A7502E004
:103F000000BF00E000BF00BF3037BD4680BD00BF2E
:103F100080B582B000AF074BDB687B607B681B6AB3
:103F200001221946786800F0E6F800BF0837BD4660
:103F300080BD00BFF401042080B582B000AF074B04
:103F4000DB687B607B685B6A00221946786800F05A
:103F5000D2F800BF0837BD4680BD00BFF401042081
:103F600080B582B000AF074BDB697B607B681B6A62
:103F700001221946786800F0BEF800BF0837BD4638
:103F800080BD00BFF401042080B582B000AF074BB4
:103F9000DB697B607B685B6A00221946786800F009
:103FA000AAF800BF0837BD4680BD00BFF401042059
:103FB00080B586B000AF78600B46FB707B685B6AAB
:103FC0005B6B7B617B691B683B613B69002B05D0A8
:103FD0007B695B7C002B01D0012300E00023FB7395
:103FE000FB7B03F00103FB73FB7B002B28D00EE06F
:103FF0007B689B681B8899B27B699B683A6913440C
:10400000CAB21A707B699B685A1C7B699A60FB78FC
:104010005A1EFA70002B05D07B699A687B695B6831
:104020009A42E5D37B699A687B695B689A4221D1A1
:104030007B685B6A00221946786800F05CF819E03A
:104040007B68DB68002B06D07B68DB687A681069C8
:104050000022022198477B691B68002B0AD17B69EB
:104060005B7C83F00103DBB2002B03D07B689B6891
:104070001B8800BF00BF1837BD4680BD80B584B027
:1040800000AF78607B681B6A5B6B1B68002B2ED0CF
:104090007B681B6A5B6B5B7C002B28D07B681B6A90
:1040A0005B6B1B68FB607B681B6A5B6B9B68FA68D9
:1040B00013441B78DAB27B689B6892B21A807B68E3
:1040C0001B6A5B6B9A6801329A607B681B6A5B6B48
:1040D0009A687B681B6A5B6B5B689A4207D37B6854
:1040E0001B6A01221946786800F005F800BF00BF7E
:1040F0001037BD4680BD80B58CB000AFF860B960A8
:104100001346FB71BB6893F83C30002B08D0BB68AA
:104110005B6B00225A74BB685B6B5A69BB685A635D
:10412000BB685B6B5B7C87F82F300023BB62EFF3CF
:104130001083BB61BB69BB6272B6FB79012B0AD1EC
:10414000FB689B689B889AB2FB689B6822F012020E
:1041500092B29A801BE0FB689B689B889AB2FB68CE
:104160009B6822F0200292B29A80FB6893F82D306F
:1041700083F00103DBB2002B09D0FB689B689B88AE
:104180009AB2FB689B6822F0010292B29A80BB6AE5
:104190007B617B6983F31088FB68DB68002B3AD076
:1041A000BB6893F83C30022B35D1FB689B697B627E
:1041B000FB6800229A61BB689B6B1B683B623B6A91
:1041C000FB61BB689B6B00221A60BB689B6B5A69E2
:1041D000BB689A63BB689B6B1B68002B03D1BB68F1
:1041E000002283F83C207B6A002B07D0FB68DB6849
:1041F000FA6810697A6A0421984706E0FB68DB6870
:10420000FA681069F979FA699847BB684833184623
:10421000FDF776FC20E0FB79012B0ED100BFFB6897
:104220009B689B8A9BB203F04003402BF7D1FB684D
:104230009B681B8F9BB2002BF1D1BB689B6B5B69AA
:104240001B68002B03D1BB68002283F83C20BB68AD
:1042500048331846FDF754FC97F82F30002B06D052
:10426000BB681B6CBA68526B1146F868984700BF70
:104270003037BD4680BD000080B582B000AF034638
:10428000FB71FB790F4A012101FA03F313610E4B15
:104290001A68FB79DB0013441B68002B0ED00A4B15
:1042A0001A68FB79DB0013441B68074A1168FA7926
:1042B000D2000A445068F9790022984700BF0837B5
:1042C000BD4680BD80C00440FC18042080B500AF0E
:1042D0000020FFF7D1FF00BF80BD80B500AF0120F7
:1042E000FFF7CAFF00BF80BD80B500AF0220FFF717
:1042F000C3FF00BF80BD000080B500AF074B5B6807
:1043000003F02003202B03D10520FFF7B5FF02E0C7
:104310000320FFF7B1FF00BF80BD00BF80C0044095
:1043200080B586B000AF78600F4A07F10C0307CA6A
:1043300003C31A700D4A07F1080312681146198069
:104340000233120C1A7007F10C03184617F0B6F876
:10435000786817F0B3F807F10803184617F0AEF8BD
:1043600000BF1837BD4680BD606B02006C6B020059
:1043700080B584B000AF78600A4A07F10C03126878
:10438000114619800233120C1A70786817F096F8EB
:1043900007F10C03184617F091F800BF1037BD461F
:1043A00080BD00BF6C6B020080B582B000AF00F032
:1043B00087F8094B7B60094B3B6007E07A68131D67
:1043C0007B603B68191D396012681A603B68044ABB
:1043D0009342F3D3FBF714FFF0880200000004209F
:1043E000940F042080B400AFFEE7000080B487B0D3
:1043F00000AF2E4B1B6803F00303032B50D801A220
:1044000052F823F0154400001D440000254400002C
:104410008D440000264B274A1A603CE0244B254A75
:104420001A6038E0214B1B6803F4C053002B02D004
:10443000204B7B6101E01F4B7B611C4BDB6803F071
:104440001F033B61194BDB68DB0A03F00F03FB60C2
:10445000164BDB681B0C03F00103BB60134BDB68DE
:104460001B0A03F001037B607A69BB6802FA03F35D
:104470003A6902FB03F2FB68B2FBF3F27B6822FAB3
:1044800003F37B610A4A7B69136004E00A4B1B68F3
:10449000074A136000BF064B1B68084A136000E020
:1044A00000BF1C37BD465DF8047B704700C3044065
:1044B0000019042080BA8C01041904200819042072
:1044C00080B584B000AF0121FA2000F027F8EFF3A7
:1044D00010837B607B68FB6072B60E4B0E4A9A605D
:1044E0000C4B4FF4E0225A620A4BD3F88830094A49
:1044F00043F47003C2F88830BFF36F8FBFF34F8F60
:10450000FB68BB60BB6883F3108800BF1037BD46F3
:1045100080BD00BF00ED00E00000000080B485B069
:1045200000AF78600B46FB700023FB607B6803F0F4
:104530000203002B03D0FB6843F00103FB607B68A0
:1045400003F01803002B03D0FB6843F00203FB6069
:104550007B6803F02003002B03D0FB6843F48073D7
:10456000FB607B6803F0C003002B03D0FB6843F4BF
:104570000073FB600D4B44F65902DA60FB78002BA8
:1045800006D00A4B5A690949FB6813434B6106E0A0
:10459000064B5A69FB68DB43044913404B61002317
:1045A00018461437BD465DF8047B704700C00440D0
:1045B00080B582B000AF0346FB71074B1B68DB6A16
:1045C000002B05D0044B1B68DB6AFA79104698472C
:1045D00000BF0837BD4680BD2019042080B582B0D9
:1045E00000AF7860064B1B681B6B002B04D0044B9C
:1045F0001B681B6B7868984700BF0837BD4680BDB5
:104600002019042080B58EB000AF78603960002397
:10461000FB86624A3B681360614A7B681360614BAA
:10462000614A1A605F4B614A5A605E4B604A9A6009
:104630005C4B604ADA605A4B1B681B685E4A136029
:10464000574B1B685B685C4A53605B4B5B4A9A60E4
:10465000534B1B68DB68584AD360594B00221A70D1
:10466000584B00221A704D4B1B681B781A46524952
:104670004C480AF0E9FB0346002B02D04FF0FF3311
:1046800088E004F0FFFF0346FB86454B1B681B696F
:10469000002B0AD0FB8E002B07D0414B1B681B69F7
:1046A000FA8E11460020984717E02C233B733B4BB2
:1046B0001B6893F903303B7407F10C0318460BF0A9
:1046C0002BF92D233B73354B1B6893F903303B7457
:1046D00007F10C0318460BF01FF902233B7307F197
:1046E0000C0318460AF02CFF3B690822194636488D
:1046F00006F009FC03233B7307F10C0318460AF08C
:104700001FFF3B6908221946304806F0FCFB0423D2
:104710003B7307F10C0318460AF012FF3B690422B1
:1047200019462B4806F0EFFB1D233B731B4B1B6800
:104730001B793B7407F10C0318460BF0EDF80523C9
:104740003B73164B1B685B783B7407F10C031846F0
:104750000BF0E2F8114B1B685B7918460CF09CFBE0
:104760000AF028FE01233B7307F10C0318460AF0F8
:10477000E7FE0346002B0CD13B7C002B09D1084BF4
:104780001B685B69002B04D0054B1B685B691148F3
:104790009847002318463837BD4680BD1C190420B1
:1047A00020190420241904202D4D0000A14D0000E3
:1047B000694E0000B14F000034190420E19400005C
:1047C000641904206C190420150204201D02042021
:1047D000250204201402042080B500AF07F0A6FCD7
:1047E0000346002B01D0012310E000F0B5F803468A
:1047F000012B03D000F0A4F8012307E000F058FDDE
:104800000346002B01D0012300E00023184680BDA1
:1048100080B584B000AF0023FB81204B1B6E002BC2
:1048200002D01E4B1B6E984707F074FF04F068FE21
:104830000346FB81FB89002B0BD0194B1B681B69BE
:10484000002B06D0164B1B681B69FA891146012004
:10485000984700F057FD00F02BFD0346002B18D1C0
:10486000104B1B78002B15D000233B7100237B716C
:104870000023BB600C4B1B689A783B1D1146184601
:1048800000F086F80346002B04D1064B00221A7074
:1048900000E000BF1037BD4680BD00BFCC7C0200E9
:1048A000201904206C1904201C19042080B400AFC6
:1048B000034B1B681846BD465DF8047B704700BF7C
:1048C0006819042080B588B000AF0346FB7101234E
:1048D0003B72174B1B6893F90330DBB27B73FB7998
:1048E000002B05D002233B73124B01221A7004E007
:1048F00001233B730F4B00221A7007F1080318467F
:104900000BF016FF0346FB770B4B1B68DB69002B94
:1049100007D0094B1B68DB69BA6907F10801F87F0A
:104920009847BB69054A136000BF2037BD4680BD6C
:104930001C190420140204202019042068190420E2
:1049400080B500AF034B1B781846FFF7BBFF00BFD5
:1049500080BD00BF1402042080B58CB000AF0123DD
:104960003B713B1D18460AF0EBFD034687F82F30DC
:1049700097F82F30002B06D13B7A002B01D1002372
:1049800002E0012300E0002318463037BD4680BD19
:1049900080B58AB000AF78600B46FB70FFF7DCFF94
:1049A0000346012B07D0344B1B781846FFF78AFFCC
:1049B0004FF0FF335BE0314AFB781372FB78002B3A
:1049C00014BF01230023DBB23B742D4B1B6893F90A
:1049D0000330BB777B685B7807F10C021146184601
:1049E0000AF01EFD0346002B06D000233B74002373
:1049F000BB610023BB8309E07B681B783B757B6848
:104A00005B789BB2BB837B685B68BB611B4B7A683E
:104A1000103392E8030083E80300194B1B6893F9F5
:104A20000320164B9A7207F1100318460CF042F857
:104A3000034687F82730134B1B689B69002B08D06F
:104A4000104B1B689B693A6A07F1100197F8270021
:104A500098473B6A0C4A136097F82730002B04D123
:104A60000A4B00221A70002301E04FF0FF33184672
:104A70002837BD4680BD00BF140204203C0204203C
:104A80001C19042020190420681904206C19042022
:104A900080B586B000AF09233B703B4618460BF04B
:104AA00047FE0346FB750D4B1B68DB69002B06D0E8
:104AB0000A4B1B68DB693A693946F87D98473B69C0
:104AC000074A1360FB7D002B01D1002301E04FF06A
:104AD000FF3318461837BD4680BD00BF201904209B
:104AE0006819042080B586B000AF0B233B703B46AD
:104AF00018460BF01DFE0346FB750D4B1B68DB696A
:104B0000002B06D00A4B1B68DB693A693946F87DF1
:104B100098473B69074A1360FB7D002B01D10023B6
:104B200001E04FF0FF3318461837BD4680BD00BF87
:104B3000201904206819042080B58AB000AF03460C
:104B4000FB710C233B74FB7903F00703DAB23B7D66
:104B500062F302033B753B7D6FF3C7033B7507F1BF
:104B6000100318460BF0E4FD034687F82730164B78
:104B70001B68DB69002B08D0134B1B68DB693A6AA2
:104B800007F1100197F8270098473B6A0F4A136016
:104B900097F82730002B10D100233B7200237B7243
:104BA0000023FB600A4B1B689A7807F10803114643
:104BB0001846FFF7EDFE034601E04FF0FF331846BD
:104BC0002837BD4680BD00BF201904206819042085
:104BD0001C19042080B58EB000AF0346FB71002382
:104BE00087F8373000233B7307F10C0318460AF0AF
:104BF000A7FC3B7C87F8363097F83620FB799A4241
:104C000046D0FB79012B1AD0022B28D0002B00D0E4
:104C100041E097F83630002B3CD000233B7407F17D
:104C20000C0318460AF078FE0346002B03D100203F
:104C3000FFF7BEFC2EE0FF2387F837302AE097F815
:104C40003630002B02D0FF2387F83730FFF720FFE4
:104C5000034687F83730134B01221A701BE097F890
:104C60003630002B02D0FF2387F8373002233B7405
:104C700007F10C0318460AF04FFE0346002B03D140
:104C80000220FFF795FC06E0FF2387F8373002E0AB
:104C900000BF00E000BF97F9373018463837BD46EF
:104CA00080BD00BF6419042080B58AB000AF002326
:104CB0003B703B4618460AF043FC3B7918462837C0
:104CC000BD4680BD80B58AB000AF2D233B703B460A
:104CD00018460AF035FC97F9043018462837BD46C7
:104CE00080BD000080B400AF034B1B681B781846E2
:104CF000BD465DF8047B70471C19042080B58CB05C
:104D000000AF786030233B727B68FB6007F10803DB
:104D100018460AF001FE0346002B02D04FF0FF3385
:104D200000E0002318463037BD4680BD80B582B014
:104D300000AF7860184B01221A707B685A78164BC6
:104D40005A707B689B785AB2134B9A727B68DB6807
:104D5000114AD3607B6893F903200F4B1A767B6866
:104D60001B69DAB20C4B5A767B681B791A460A4BE0
:104D70005A720A4B1B685B6A002B04D0074B1B68F6
:104D80005B6A054898477968002000F017FA00BF71
:104D90000837BD4680BD00BF3C0204202019042016
:104DA00080B584B000AF78602C4B01221A707B680C
:104DB0005A782A4B5A70294B5B78002B49D17B6873
:104DC0001B795AB2254B1A727B68B3F90E305AB26E
:104DD000224B5A727B6893F91020204B9A727B68A1
:104DE0005B691E4AD3607B685B7C5AB21B4B1A74AA
:104DF0007B68DB783B727B681B7B7B727B689B6884
:104E0000FB60174B1B689B6A002B07D0144B1B6879
:104E10009B6A07F108021149104698477B681B7F7F
:104E2000002B0AD00E4B1B685B6B002B05D00C4B84
:104E30001B685B6B0021012098477968012000F016
:104E4000BDF97B685B79002B04D0064B01221A70F8
:104E500000E000BF1037BD4680BD00BF58020420EF
:104E6000201904206C19042080B58CB000AF786044
:104E70004A4B00221A707B685A78484B5A70484B4C
:104E80001B685B6A002B04D0454B1B685B6A434878
:104E900098477968022000F091F97B681B78013B04
:104EA0000B2B72D801A252F823F000BFDD4E000098
:104EB0008B4F00008B4F00008B4F00008B4F00008A
:104EC0008B4F00008B4F00008B4F00002B4F0000DA
:104ED0008B4F0000394F0000554F000007233B72F5
:104EE00007F1080318460AF02BFB2E4B1B68FA68E3
:104EF000DA61FFF7E7FE03461A462A4B1A717B6810
:104F00005B78002B03D1274B00225A7102E0254B1E
:104F1000FF225A71224B1B681B6A002B37D0204B93
:104F20001B681B6A1F48984731E01F4B1B78002BFA
:104F30002FD0FFF7D7FD2CE07B685B78002B06D1E4
:104F40001A4B1B681B7B1846FFF7F6FD22E0FFF7A4
:104F50009FFD1FE07B685B78002B0FD100233B7225
:104F600001233B7307F1080318460AF0D5FC012022
:104F7000FFF71EFB0C4B00221A700BE00B4B1B685B
:104F80001B7B1846FFF7D8FD04E000BF02E000BF1E
:104F900000E000BF00BF3037BD4680BD3C020420AA
:104FA0002019042034020420641904201C19042050
:104FB000B0B58CB000AF7860354B00221A707B68BA
:104FC0005A78334B5A70324B5B780D2B0AD0314BE9
:104FD0001B689B6A002B05D02E4B1B689B6A2C49D3
:104FE000002098477968032000F0E8F87B681B7878
:104FF0000A2B22D00E2B00D045E000233B72002369
:105000003B7307F1080318460AF086FC224B012285
:105010005A70214B00225A601F4B00229A750622BB
:1050200000211E4805F0AAFF0020FFF7C1FA1A4828
:10503000FFF7D4FAFFF72CFD25E07B685B780D2B9A
:1050400010D1154B02225A70134A7B68141D1D1D86
:105050000FCD0FC495E8070084E807000E48FFF75E
:10506000BDFA0FE00C4B03225A700B4A7B68141DEB
:105070001D1D0FCD0FC495E8070084E80700064802
:10508000FFF7ACFA00BF00BF3037BD46B0BD00BF70
:105090005802042020190420441904205B1904201C
:1050A00080B584B000AF03463960FB710023FB601C
:1050B000FB79032B1AD801A252F823F0CD5000003F
:1050C000D5500000DD500000E550000001F082F9ED
:1050D000F8600BE000F0D8FEF86007E002F04CFC4E
:1050E000F86003E002F016F8F86000BFFB68002BE0
:1050F00037D0FB791E49FA6841F823201D4B1A6806
:10510000FB791B4951F8233092695A62194B1A688E
:10511000FB79174951F82330D2699A62FB79144A16
:1051200052F82330144ADA62FB79114A52F82330DC
:10513000124A1A630F4B1A68FB790D4951F8233054
:10514000526B5A63FB790A4A52F823305B680C4A67
:10515000126891680A4A1268927938689847002361
:1051600001E04FF0FF3318461037BD4680BD00BF49
:105170000C19042020190420C5480000914A0000A1
:105180001C19042080B582B000AF0346FB71FB7987
:10519000094A52F823309B68002B07D0FB79064A56
:1051A00052F823309B689847034600E000231846D6
:1051B0000837BD4680BD00BF0C19042080B584B0FF
:1051C00000AF03463960FB710023FB7365E097F97C
:1051D0000F30364A52F82330002B58D0FB79032B7E
:1051E00055D801A252F823F0F95100001B520000DB
:1051F0003D5200005F52000097F90F302B4A52F8E1
:1052000023305B69002B3BD097F90F30274A52F8C7
:1052100023305B693868984732E097F90F30234AAA
:1052200052F823309B69002B2CD097F90F301F4A7E
:1052300052F823309B693868984723E097F90F307C
:105240001A4A52F82330DB69002B1DD097F90F3032
:10525000164A52F82330DB693868984714E097F90A
:105260000F30124A52F823301B6A002B0ED097F9E8
:105270000F300E4A52F823301B6A3868984705E011
:1052800000BF04E000BF02E000BF00E000BF97F9EC
:105290000F30DBB20133DBB2FB7397F90F30032B16
:1052A00095DD00BF1037BD4680BD00BF0C1904203E
:1052B00080B582B000AF0023FB7118E097F907308A
:1052C0000F4A52F82330002B0BD097F907300C4AC5
:1052D00052F82330DB6898470346002B01D00123A6
:1052E0000AE097F90730DBB20133DBB2FB7197F9C3
:1052F0000730032BE2DD002318460837BD4680BD8A
:105300000C19042080B582B000AF0023FB7122E0AD
:1053100097F90730144A52F82330002B15D097F92B
:105320000730114A52F823301B69002B0DD0FB794E
:105330001846FFF727FF0346002B06D097F90730E2
:10534000094A52F823301B69984797F90730DBB2B6
:105350000133DBB2FB7197F90730032BD8DD00BFB7
:105360000837BD4680BD00BF0C19042080B588B049
:1053700000AF03463A60FB800B467B71374A3B68BF
:105380001360364AFB889380344A7B799371334BA0
:105390000022A3F84220314B0022A3F840202F4BDB
:1053A00000229A600023FB8309E0FB8B2B4A083321
:1053B0005B00134401225A80FB8B0133FB83FB8B80
:1053C000142BF2D90023BB6108E0244ABB691344C3
:1053D0003C3300221A70BB690133BB61BB69002BEF
:1053E000F3D000237B6108E01C4A7B6913440C3333
:1053F000FF221A707B6901337B617B69042BF3D92F
:1054000000233B6115E0154B1B68002B0ED0134B9E
:105410001B681B68002B09D0FF233B730F4B1B68D5
:105420001B6807F10C010122386998473B69013379
:105430003B61FB887A7902FB03F31A463B6993428E
:10544000E1D3064B0022A3F84020044B0022A3F82E
:10545000422000BF2037BD4680BD00BF7019042028
:1054600080B400AF40F21A431846BD465DF8047B95
:105470007047000080B59AB000AF03463960FB80EA
:105480000023A7F8663000233B660023FB6507F185
:10549000440303220021184605F070FD07F11003B4
:1054A00032220021184605F069FD07F10C030122A4
:1054B0000021184605F062FD07F1080301220021D2
:1054C000184605F05BFDAC4AFB88D387AA4BB3F8BE
:1054D0004230FA889A4202D24FF0FF33B4E1FA88A0
:1054E000A54B9B8801339A4225DAFB88013B99B290
:1054F000A14B9B799BB21A46386800F0BFF9FB8834
:10550000013B9D4A08335B00134400225A80FB880C
:10551000184600F073FB984BB3F84030002B40F076
:105520009181954B9B88FA889A4240F08B81924BEF
:10553000B3F8403088E1904BB3F84030052B05D9E3
:105540008D4B012283F8442000237DE1FB8818461F
:1055500000F054FBFB88884A9288981A864B9B88F7
:10556000194607F144031A4600F0B3FA0023BB655D
:1055700044E0BB6D9BB207F144021146184600F0AF
:10558000C1F90346012B36D17B4ABB6D08335B0062
:1055900013445B88002B1BD1BB6D9BB207F1440108
:1055A0000022184600F0CEF9BB6D99B2724B9B7980
:1055B0009AB207F11003184600F082F96E4B9B79FE
:1055C0001A4607F110031946386800F018FA12E07D
:1055D000694ABB6D08335B0013445B88013B9BB297
:1055E00007F10C010122184600F0ACF93B6E002BCC
:1055F00001D101233B66BB6D0133BB655E4B9B88CC
:105600001A46BB6D9342B4DB5B4BB3F8402007F105
:105610000C031146184600F0B2FA0346A7F86630AC
:105620003B6E002B40F30E8149E0534BB3F8402012
:10563000B7F8661007F10803184600F049FB4E4B17
:10564000B3F840301A4607F1080107F10C03184679
:1056500000F0F9F9B7F86630184600F013FB03467E
:10566000FB64FB6C99B2444B9B799AB207F110032F
:10567000184600F025F9404B9B791A4607F11003B4
:105680001946386800F0BBF93B4BB3F8402007F1EE
:105690000C031146184600F091FA0346002B02D085
:1056A0000123FB6514E0344BB3F8402007F10C03F1
:1056B0001146184600F063FA0346A7F86630B7F8BB
:1056C00066302E49184600F01DF90346012BACD078
:1056D000FB6D002B25D1284BB3F84020B7F866109E
:1056E00007F10C03184600F065FBB7F86630184662
:1056F00000F0C8FA0346FB64FB6C99B21E4B9B7921
:105700009BB21A46386800F0B9F8B7F86630012243
:105710001A49184600F016F9174B9B680133164AD0
:105720009360154B9B68144AB2F84020934240F0B6
:105730008980114BB3F84030012B7FD90E4BB3F861
:105740004030023B7B6572E07B6D9BB2184600F0F7
:1057500099FA0346FB64FB6C99B2074B9B799AB2AA
:1057600007F11003184600F0ABF8034BB3F84030D4
:10577000013B3B654AE000BF70190420AC190420CE
:105780007B6D99B2324BB3F8402007F108031846FD
:1057900000F09EFA3B6D99B22D4BB3F8402007F113
:1057A0000C03184600F094FA3B6D9BB207F1080217
:1057B0001146184600F0A6F80346012B23D1244BCE
:1057C000B3F840301A4607F10C0107F108031846F8
:1057D00000F039F93B6D9BB2184600F053FA0346CE
:1057E000BB64BB6C99B21A4B9B799BB21A46386862
:1057F00000F066F8164B9B791A4607F110033968DA
:10580000184600F0FCF83B6D013B3B653A6D7B6D43
:105810009A42B5DCFB6C99B20D4B9B799AB207F1B9
:105820001003184600F02AF87B6D013B7B657B6D09
:10583000002B89DA064BB3F8403005E0044BB3F88F
:10584000403001E04FF0FF3318466837BD4680BD59
:105850007019042080B483B000AF78607A68064B7A
:105860003E3319685B681160536078680C37BD4639
:105870005DF8047B704700BF7019042080B582B0CA
:1058800000AF78600B467B8013463B800B4B1B6858
:10589000002B0FD0094B1B681B68002B0AD0074B4D
:1058A0001B681B687A88398801FB02F210463A8827
:1058B0007968984700BF0837BD4680BD701904203D
:1058C00080B582B000AF78600B467B8013463B808A
:1058D0000B4B1B68002B0FD0094B1B685B68002B20
:1058E0000AD0074B1B685B687A88398801FB02F293
:1058F00010463A887968984700BF0837BD4680BD92
:105900007019042080B485B000AF03463960FB8075
:10591000FB88DB089BB21A463B6813441B78FB7379
:10592000FA7BFB88DB4303F0070342FA03F3DBB2A5
:1059300003F00103FB73FB7B18461437BD465DF88B
:10594000047B704780B485B000AF03463960FB80AC
:1059500013467B71FB88DB4303F00703012202FA45
:1059600003F3DBB2DB43FB737A79FB88DB4303F0A1
:10597000070302FA03F37B71FB88DB089BB21A462C
:105980003B6813441A78FB7B1340D9B2FB88DB08D1
:105990009BB21A463B6813447A790A44D2B21A7011
:1059A00000BF1437BD465DF8047B704780B485B0F6
:1059B00000AF78600023FB730023BB7310E0BB7B58
:1059C000012202FA03F31A467B681A40BB7B22FAD3
:1059D00003F3DAB2FB7B1344FB73BB7B0133BB7372
:1059E000BB7B1F2BEBD9FB7B012B01D1012300E0FB
:1059F000002318461437BD465DF8047B704780B419
:105A000087B000AFF860B9607A6000237B6110E076
:105A10007B69FA68134419787B69BA6813441A7869
:105A20007B69F86803444A40D2B21A707B6901333B
:105A30007B617A697B689A42EADB00BF1C37BD460E
:105A40005DF8047B7047B0B586B000AFF860B96010
:105A50007A6000237B611AE07B699CB27B699BB210
:105A6000F9681846FFF74EFF03461D467B699BB257
:105A7000B9681846FFF746FF03466B40DBB21A468B
:105A8000F9682046FFF75EFF7B6901337B617A6925
:105A90007B689A42E0DB00BF1837BD46B0BD80B4DA
:105AA00085B000AF78607B6803F00103FB607B6822
:105AB0005B1103F00103BB607B685A10F968BB6897
:105AC0004B409B05134418461437BD465DF8047BD4
:105AD000704780B58AB000AFF860B9607A60002383
:105AE000FB61BB681846FFF761FF0346002B02D03D
:105AF00001237B6201E000237B62FB6840F2E93214
:105B000002FB03F301333B6200237B6107E07B6907
:105B10007A68134400221A707B6901337B61BB6889
